{
  "_format": "hh-sol-artifact-1",
  "contractName": "WavePortal",
  "sourceName": "contracts/WavePortal.sol",
  "abi": [
    {
      "inputs": [],
      "stateMutability": "payable",
      "type": "constructor"
    },
    {
      "anonymous": false,
      "inputs": [
        {
          "indexed": true,
          "internalType": "address",
          "name": "from",
          "type": "address"
        },
        {
          "indexed": false,
          "internalType": "uint256",
          "name": "timestamp",
          "type": "uint256"
        },
        {
          "indexed": false,
          "internalType": "string",
          "name": "message",
          "type": "string"
        }
      ],
      "name": "NewWave",
      "type": "event"
    },
    {
      "inputs": [],
      "name": "getAllWaves",
      "outputs": [
        {
          "components": [
            {
              "internalType": "address",
              "name": "waver",
              "type": "address"
            },
            {
              "internalType": "string",
              "name": "message",
              "type": "string"
            },
            {
              "internalType": "uint256",
              "name": "timestamp",
              "type": "uint256"
            }
          ],
          "internalType": "struct WavePortal.Wave[]",
          "name": "",
          "type": "tuple[]"
        }
      ],
      "stateMutability": "view",
      "type": "function"
    },
    {
      "inputs": [],
      "name": "getTotalWaves",
      "outputs": [
        {
          "internalType": "uint256",
          "name": "",
          "type": "uint256"
        }
      ],
      "stateMutability": "view",
      "type": "function"
    },
    {
      "inputs": [
        {
          "internalType": "address",
          "name": "",
          "type": "address"
        }
      ],
      "name": "lastWavedAt",
      "outputs": [
        {
          "internalType": "uint256",
          "name": "",
          "type": "uint256"
        }
      ],
      "stateMutability": "view",
      "type": "function"
    },
    {
      "inputs": [
        {
          "internalType": "string",
          "name": "_message",
          "type": "string"
        }
      ],
      "name": "wave",
      "outputs": [],
      "stateMutability": "nonpayable",
      "type": "function"
    }
  ],
  "bytecode": "0x60806040526200003360405180606001604052806024815260200162001367602491396200003960201b620006891760201c565b620001cd565b620000d98160405160240162000050919062000146565b6040516020818303038152906040527f41304fac000000000000000000000000000000000000000000000000000000007bffffffffffffffffffffffffffffffffffffffffffffffffffffffff19166020820180517bffffffffffffffffffffffffffffffffffffffffffffffffffffffff8381831617835250505050620000dc60201b60201c565b50565b60008151905060006a636f6e736f6c652e6c6f679050602083016000808483855afa5050505050565b600062000112826200016a565b6200011e818562000175565b93506200013081856020860162000186565b6200013b81620001bc565b840191505092915050565b6000602082019050818103600083015262000162818462000105565b905092915050565b600081519050919050565b600082825260208201905092915050565b60005b83811015620001a657808201518184015260208101905062000189565b83811115620001b6576000848401525b50505050565b6000601f19601f8301169050919050565b61118a80620001dd6000396000f3fe608060405234801561001057600080fd5b506004361061004c5760003560e01c8063449d46c0146100515780639a2cdc081461006d578063a42a46631461008b578063bd43a908146100bb575b600080fd5b61006b600480360381019061006691906109cc565b6100d9565b005b6100756104d5565b6040516100829190610dd3565b60405180910390f35b6100a560048036038101906100a091906109a3565b610520565b6040516100b29190610dd3565b60405180910390f35b6100c3610538565b6040516100d09190610ccf565b60405180910390f35b42601e600360003373ffffffffffffffffffffffffffffffffffffffff1673ffffffffffffffffffffffffffffffffffffffff168152602001908152602001600020546101269190610ef0565b10610166576040517f08c379a000000000000000000000000000000000000000000000000000000000815260040161015d90610d93565b60405180910390fd5b42600360003373ffffffffffffffffffffffffffffffffffffffff1673ffffffffffffffffffffffffffffffffffffffff168152602001908152602001600020819055506000808154809291906101bc90610ff6565b91905055506102006040518060400160405280600d81526020017f257320686173207761766564210000000000000000000000000000000000000081525033610722565b600260405180606001604052803373ffffffffffffffffffffffffffffffffffffffff16815260200183815260200142815250908060018154018082558091505060019003906000526020600020906003020160009091909190915060008201518160000160006101000a81548173ffffffffffffffffffffffffffffffffffffffff021916908373ffffffffffffffffffffffffffffffffffffffff16021790555060208201518160010190805190602001906102bf929190610883565b506040820151816002015550506000606460015442446102df9190610ef0565b6102e99190610ef0565b6102f3919061103f565b90506103346040518060400160405280601681526020017f52616e646f6d20232067656e6572617465643a20257300000000000000000000815250826107be565b806001819055506032811015610481576103836040518060400160405280600781526020017f257320776f6e210000000000000000000000000000000000000000000000000081525033610722565b600066038d7ea4c680009050478111156103d2576040517f08c379a00000000000000000000000000000000000000000000000000000000081526004016103c990610d73565b60405180910390fd5b60003373ffffffffffffffffffffffffffffffffffffffff16826040516103f890610cba565b60006040518083038185875af1925050503d8060008114610435576040519150601f19603f3d011682016040523d82523d6000602084013e61043a565b606091505b505090508061047e576040517f08c379a000000000000000000000000000000000000000000000000000000000815260040161047590610db3565b60405180910390fd5b50505b3373ffffffffffffffffffffffffffffffffffffffff167f5f7e16dc676677766a70e9c5628aa6c54ddb8b6e5188e2ae1e1f17f1ffbea71642846040516104c9929190610dee565b60405180910390a25050565b60006105186040518060400160405280601781526020017f5765206861766520256420746f74616c207761766573210000000000000000008152506000546107be565b600054905090565b60036020528060005260406000206000915090505481565b60606002805480602002602001604051908101604052809291908181526020016000905b8282101561068057838290600052602060002090600302016040518060600160405290816000820160009054906101000a900473ffffffffffffffffffffffffffffffffffffffff1673ffffffffffffffffffffffffffffffffffffffff1673ffffffffffffffffffffffffffffffffffffffff1681526020016001820180546105e590610fc4565b80601f016020809104026020016040519081016040528092919081815260200182805461061190610fc4565b801561065e5780601f106106335761010080835404028352916020019161065e565b820191906000526020600020905b81548152906001019060200180831161064157829003601f168201915b505050505081526020016002820154815250508152602001906001019061055c565b50505050905090565b61071f8160405160240161069d9190610cf1565b6040516020818303038152906040527f41304fac000000000000000000000000000000000000000000000000000000007bffffffffffffffffffffffffffffffffffffffffffffffffffffffff19166020820180517bffffffffffffffffffffffffffffffffffffffffffffffffffffffff838183161783525050505061085a565b50565b6107ba8282604051602401610738929190610d13565b6040516020818303038152906040527f319af333000000000000000000000000000000000000000000000000000000007bffffffffffffffffffffffffffffffffffffffffffffffffffffffff19166020820180517bffffffffffffffffffffffffffffffffffffffffffffffffffffffff838183161783525050505061085a565b5050565b61085682826040516024016107d4929190610d43565b6040516020818303038152906040527f9710a9d0000000000000000000000000000000000000000000000000000000007bffffffffffffffffffffffffffffffffffffffffffffffffffffffff19166020820180517bffffffffffffffffffffffffffffffffffffffffffffffffffffffff838183161783525050505061085a565b5050565b60008151905060006a636f6e736f6c652e6c6f679050602083016000808483855afa5050505050565b82805461088f90610fc4565b90600052602060002090601f0160209004810192826108b157600085556108f8565b82601f106108ca57805160ff19168380011785556108f8565b828001600101855582156108f8579182015b828111156108f75782518255916020019190600101906108dc565b5b5090506109059190610909565b5090565b5b8082111561092257600081600090555060010161090a565b5090565b600061093961093484610e4f565b610e1e565b90508281526020810184848401111561095157600080fd5b61095c848285610f82565b509392505050565b6000813590506109738161113d565b92915050565b600082601f83011261098a57600080fd5b813561099a848260208601610926565b91505092915050565b6000602082840312156109b557600080fd5b60006109c384828501610964565b91505092915050565b6000602082840312156109de57600080fd5b600082013567ffffffffffffffff8111156109f857600080fd5b610a0484828501610979565b91505092915050565b6000610a198383610c4c565b905092915050565b610a2a81610f46565b82525050565b610a3981610f46565b82525050565b6000610a4a82610e8f565b610a548185610eb2565b935083602082028501610a6685610e7f565b8060005b85811015610aa25784840389528151610a838582610a0d565b9450610a8e83610ea5565b925060208a01995050600181019050610a6a565b50829750879550505050505092915050565b6000610abf82610e9a565b610ac98185610ece565b9350610ad9818560208601610f91565b610ae28161112c565b840191505092915050565b6000610af882610e9a565b610b028185610edf565b9350610b12818560208601610f91565b610b1b8161112c565b840191505092915050565b6000610b33602f83610edf565b91507f547279696e6720746f207769746864726177206d6f7265206d6f6e657920746860008301527f616e20636f6e74726163742068617300000000000000000000000000000000006020830152604082019050919050565b6000610b99600f83610edf565b91507f57616974203330207365636f6e647300000000000000000000000000000000006000830152602082019050919050565b6000610bd9602783610edf565b91507f4661696c656420746f207769746864726177206d6f6e65792066726f6d20636f60008301527f6e74726163742e000000000000000000000000000000000000000000000000006020830152604082019050919050565b6000610c3f600083610ec3565b9150600082019050919050565b6000606083016000830151610c646000860182610a21565b5060208301518482036020860152610c7c8282610ab4565b9150506040830151610c916040860182610c9c565b508091505092915050565b610ca581610f78565b82525050565b610cb481610f78565b82525050565b6000610cc582610c32565b9150819050919050565b60006020820190508181036000830152610ce98184610a3f565b905092915050565b60006020820190508181036000830152610d0b8184610aed565b905092915050565b60006040820190508181036000830152610d2d8185610aed565b9050610d3c6020830184610a30565b9392505050565b60006040820190508181036000830152610d5d8185610aed565b9050610d6c6020830184610cab565b9392505050565b60006020820190508181036000830152610d8c81610b26565b9050919050565b60006020820190508181036000830152610dac81610b8c565b9050919050565b60006020820190508181036000830152610dcc81610bcc565b9050919050565b6000602082019050610de86000830184610cab565b92915050565b6000604082019050610e036000830185610cab565b8181036020830152610e158184610aed565b90509392505050565b6000604051905081810181811067ffffffffffffffff82111715610e4557610e446110fd565b5b8060405250919050565b600067ffffffffffffffff821115610e6a57610e696110fd565b5b601f19601f8301169050602081019050919050565b6000819050602082019050919050565b600081519050919050565b600081519050919050565b6000602082019050919050565b600082825260208201905092915050565b600081905092915050565b600082825260208201905092915050565b600082825260208201905092915050565b6000610efb82610f78565b9150610f0683610f78565b9250827fffffffffffffffffffffffffffffffffffffffffffffffffffffffffffffffff03821115610f3b57610f3a611070565b5b828201905092915050565b6000610f5182610f58565b9050919050565b600073ffffffffffffffffffffffffffffffffffffffff82169050919050565b6000819050919050565b82818337600083830152505050565b60005b83811015610faf578082015181840152602081019050610f94565b83811115610fbe576000848401525b50505050565b60006002820490506001821680610fdc57607f821691505b60208210811415610ff057610fef6110ce565b5b50919050565b600061100182610f78565b91507fffffffffffffffffffffffffffffffffffffffffffffffffffffffffffffffff82141561103457611033611070565b5b600182019050919050565b600061104a82610f78565b915061105583610f78565b9250826110655761106461109f565b5b828206905092915050565b7f4e487b7100000000000000000000000000000000000000000000000000000000600052601160045260246000fd5b7f4e487b7100000000000000000000000000000000000000000000000000000000600052601260045260246000fd5b7f4e487b7100000000000000000000000000000000000000000000000000000000600052602260045260246000fd5b7f4e487b7100000000000000000000000000000000000000000000000000000000600052604160045260246000fd5b6000601f19601f8301169050919050565b61114681610f46565b811461115157600080fd5b5056fea2646970667358221220e878545c7a94ae3acb87791b881249747e3f1dbbebea94da25e84307083af88964736f6c63430008000033546869732069732057696c6c277320666972737420736d61727420636f6e74726163742e",
  "linkReferences": {},
  "deployedLinkReferences": {}
}